:02000002D0002C
:1040000000400D0044750D00000006000C00050185
:084010000401BD0B00000000DB
:044018003C6B0D00F0
:10401C0009480A49884208B505D0094A824202D0AB
:10402C00121A02F0A1FC0748074A0021121A02F0EA
:10403C00A9FC014808BD00BF54E50320B4740D0071
:10404C00BCE50320BCE50320F0E7032070B5074E68
:10405C00074C02F02DFAA41BA4080025A54200D1A0
:10406C0070BD56F8043B98470135F7E780740D0096
:10407C00A4740D0000F050BC08B500F063FDBDE861
:10408C00084002F0D7B901F09FB901F09DB901F0D9
:10409C00A3B9000008B5034A00210C2001F0E8F890
:1040AC00FEE700BF3D4F0D000078B0FA80F04009EC
:1040BC007047012303707047704710B510210446F8
:1040CC0002F025FB204610BD37B504460846019189
:1040DC0002F08EFC6368A268451CE818904208D870
:1040EC00206801992A46184402F03EFC6068284476
:1040FC00606003B030BD000038B584690A4B0360C2
:10410C0005467CB16368013B63605BB9236820465C
:10411C009B689847A368013BA3601BB923682046A2
:10412C00DB689847284638BD8C710D000EB403B57A
:10413C0003AB002153F8042B019301F0D2FB02B026
:10414C005DF804EB03B0704773B50446084622795A
:10415C00A36832B1A3B90B4902B0BDE8704001F0BD
:10416C0085BB094A267B094D0949647B012E18BF82
:10417C002946CDE900140749FFF7D8FF02B070BDFE
:10418C00054AEFE7616B0D00586B0D005D6B0D0080
:10419C00596B0D00776B0D00506B0D0008B500F0DE
:1041AC00CFFE034B1860BDE8084001F09DB800BF7E
:1041BC00D4E7032003682BB14268934202D218461D
:1041CC0002F0BCBB0020704738B50568044645B109
:1041DC0043689D4205D2284602F00AFC0130054492
:1041EC002560204638BD000038B504460B46D0E9A2
:1041FC0001012568044A091A284401F0F5F863689E
:10420C0001300344636038BD946B0D0038B504462F
:10421C000B46D0E901012568044A091A284401F02B
:10422C00E3F8636801300344636038BD976B0D009D
:10423C0008B500234377006801F0A0FEBDE80840F4
:10424C0000F048BE2DE9F04301EB02098FB049455F
:10425C00CDE9051980460D46164680F0928005A8DA
:10426C000F88FFF7B1FF0368994540F28A8005A8D3
:10427C00FFF7A0FF47F276239F42C4B200F0A9805B
:10428C0027D847F261239F427ED047F264239F4296
:10429C0042D046F670539F4228D1634E634FDFF8ED
:1042AC00A081059B99456CD905A8FFF783FFC4B283
:1042BC0005A8FFF789FF059D3146284602F08EFBC5
:1042CC000146E0B9204602F063F905A8FFF77CFF30
:1042DC00E7E747F264739F423FD047F276739F4201
:1042EC0000F0878047F261739F425FD00023CDE9D5
:1042FC00013302220092B8F81A20194629E03946F7
:10430C00284602F06BFB28B14146284602F066FBBA
:10431C000028DAD10121D5E70AAB4549079307A854
:10432C0010230025CDE90853FFF7CEFE07A8214640
:10433C00FFF75AFF204602F055F9014607A8FFF790
:10434C0065FF089BCDE90155013B0093079B2A466D
:10435C001421404600F00CFB13E005A8FFF734FFD6
:10436C00036899450DD9A4B20121204602F010F939
:10437C0005A8FFF71FFF011E18BF0121204602F000
:10438C0018F90FB0BDE8F0830AAB079307A8102308
:10439C0028490025CDE90853FFF796FE07A82146CA
:1043AC00FFF722FF204602F030F9C6E705A8FFF719
:1043BC000BFF03689945E4D9A4B20121204602F011
:1043CC00E7F805A8FFF7F6FE0146204602F034F99F
:1043DC00D7E720468DF8284000F07EFD03460AA85A
:1043EC0023B1154A934201D09847CAE700F070FDFB
:1043FC00C7E705A8FFF7E8FE059B8DF81C405D1B81
:10440C00751B2046CDE90A350C9500F06FFD03466F
:10441C000AA907A823B1094A934201D09847B0E7EB
:10442C0000F057FDADE700BF9B6B0D009E6B0D00C0
:10443C00A66B0D00A96B0D00DD4E0D00DF4E0D00BF
:10444C00A26B0D002DE9F0418CB004AF044605229F
:10445C000068391D01F04FFBB8B3052804D00020CB
:10446C002037BD46BDE8F081B7F80520130A43EAB2
:10447C000223B7F80720A7F8053099B2130A43EACC
:10448C0002231FFA83F8A7F807300029E7D03B79FD
:10449C0023BB00F01BFD0246E060607FB7F80730DD
:1044AC00C0B9B7F80510012914D1092B0FD0C82BAE
:1044BC0001D0042BD4D1012562612046657700F030
:1044CC0005FBFFF76BFE00F005FD0120C8E7032399
:1044DC006377C5E7581F18BF0120C1E7B8F5806F97
:1044EC0003D92046FFF7A4FEEFE708F1080323F0F9
:1044FC0007036E46ADEB030D04AD2068424629461A
:10450C0001F0F9FA80454FF000007FD1B7F8073081
:10451C00E85400F0DBFC3B79E060142B00F0A68043
:10452C0048D80F2B00F0A28007D8022B48D0062BBE
:10453C0051D02046FFF77CFE58E0112BF9D1002317
:10454C003B70B7F807302B449D42C7E903534DD25B
:10455C0007F10C00D5F80080FFF736FEFB68B7F8C2
:10456C0007105D1B4D1BC7E905357B68FD61C3F367
:10457C000F236383644B984500F0BF8000F28C805E
:10458C00A3F57F236FF400721344984500F09D80CF
:10459C0079D8A3F50033063B984500F09C8003F5D1
:1045AC000033033398456BD107F11401384600F002
:1045BC0090FC65E0292B1BD0372B17D01D2BB8D1C5
:1045CC00637F43B901236377204600F07FFAFFF73E
:1045DC00E5FD00F07FFC0023C821B7F80520009111
:1045EC00CDE901331946204600F0C2F901200DE057
:1045FC00A3681BB9402000F0E7FEA060B7F8078065
:10460C00A8444545C7E9055802D30020B54627E71D
:10461C0029464022A06802F0F3F9A368002583F82C
:10462C003F5007F11400FFF7CFFD036843451BD241
:10463C00786920B1BB69984214D202F083F985B233
:10464C00206801F09BFC2368A2685A631D87002335
:10465C00637700F03BFCA0F59C500838C4E90300DC
:10466C006061C3E72846EAE75025E9E77B68B7F8BD
:10467C000720C3F30F23638329462046FFF7E2FD8F
:10468C0000236383B2E7214B9845F9D107F114015C
:10469C00384600F01EFCF3E71D4B984521D003F182
:1046AC009F6303F5003303F5807398451FD003F126
:1046BC006E4303F5302303F586739845E0D107F17B
:1046CC001401384600F005FCDAE707F1140138460E
:1046DC0000F0FFFBD4E707F11401384600F0F9FBBA
:1046EC00CEE707F11401384600F0F3FBC8E707F1F9
:1046FC001401384600F0EDFBC2E707F1140138460F
:10470C0000F0E7FBBCE700BF7666730064626700ED
:10471C0061636F6E2DE9F04104468CB00D46FFF7D6
:10472C003DFD637F022B00F0A880237F628B013359
:10473C00DBB223770AB1012516E0022BFBD82068E7
:10474C0001F03BFAB8B125B9206801F0BDFB002897
:10475C0011DD2046FFF776FE05460028F4D12068CF
:10476C0001F00CFC00F0B6FB237F013B23772846BD
:10477C000CB0BDE8F08100F0A9FB0646206801F002
:10478C001CFA677F012F054629D120B966612046A6
:10479C00FFF74EFDE8E7E3684FF21862F31A934215
:1047AC0004D92046FFF744FD0025DDE74AF6C87220
:1047BC00934203D82369F31A9342BCD9636941F23B
:1047CC007072F31A9342B6D90023CDE901330093EA
:1047DC001A460621204600F0CBF86661ABE7002FA5
:1047EC00A9D16269B21A40B141F270739A42A2D94E
:1047FC00206801F0C3FB6777D6E741F288339A4211
:10480C0099D9206801F0BAFBD4F800C0DCF834E088
:10481C00BCF83880BEF1000F0BD02B4642467146D7
:10482C00604601F019FC431E5D425D418DB9666125
:10483C009AE7134B06930CF120070FCF07AD0FC56A
:10484C003B682B704246734606A9604601F0C1FADC
:10485C00E9E76368059301261846268302F0C8F839
:10486C000022CDE90122059B009032461D212046F5
:10487C0000F07EF82369636176E7002577E700BFD7
:10488C00FC700D002DE9F04115468CB00446043542
:10489C0040F6B8300F46984600F016FB0FCD01AE2F
:1048AC000FC62B683370676000F010FBA0F59C50AE
:1048BC00083801AFC4E9030060610FCF07AE0FC623
:1048CC003B68337007AF0FCF25684FF0000CC5F86D
:1048DC0034C0A5F8388020350FC533682B70664678
:1048EC0044F24F67206801F049FB667700F0EEFA5E
:1048FC000546637F012B0CD000F0E8FA401BB84250
:10490C0004D800212046FFF705FFF2E7637F012B57
:10491C00E8D10CB0BDE8F08100B589B001F000FD24
:10492C004FF4165101F0F0FCA2230093AC22EA23C1
:10493C00A72102A800F09AFE42F2823302AA09498A
:10494C000948FFF79FFF02A800F0E6F9502102A8E2
:10495C0000F0EFF902A9054800F05AFA09B05DF829
:10496C0004FB00BFAC6B0D00CCE5032028E6032054
:10497C002DE9F04F83B000AF044600683D6B8846CC
:10498C0016469946EB4601F018F900287FD0B8F18D
:10499C001D0F04D84C4B23FA08F3DB0702D4637FBA
:1049AC00012B74D146B9668B36B9238B01339BB27C
:1049BC00002B71D02383268BA8F10C03082B16D85F
:1049CC00D4E90323934238BF134603F1420A00F0A3
:1049DC007DFAAAEB0000002860DB00212046FFF7DF
:1049EC0099FE00F073FAAAEB00000028F5DAB9F191
:1049FC00000F5AD06B1D7A6B002ABA6B08BF0022CD
:104A0C0003EB020A0AF1070323F00703ADEB030DD6
:104A1C00BB6BC7F804D0EA18C2F3072376BA43EA93
:104A2C0002238DF80080ADF80160ADF80330B9F1C8
:104A3C00000F3CD0002D3AD02A4649460DF1050016
:104A4C0001F092FF681D7B6B3BB1BB6B2BB11A461F
:104A5C007B68796B184401F087FF002555452AD2F5
:104A6C00AAEB05027B682068B2F5806F28BF4FF473
:104A7C008062591901F08BF80646002000F024FAE8
:104A8C00BEB9206801F07AFA667700F023FA0C3789
:104A9C00DD46BD46BDE8F08F01238BE7217F002961
:104AAC00A5D12046FFF736FEA1E70523A3E7052095
:104ABC00C9E73544D2E703D02046FFF7B9FBE6E758
:104ACC0000F004FA2061E2E74500002000B595B043
:104ADC0004AB00220193492300930292034B112152
:104AEC00FFF746FF15B05DF804FB00BFEC6B0D0043
:104AFC00F0B5ADF2244D08AB002405460F460593E6
:104B0C0005A84FF480630E491646CDE90643FFF71E
:104B1C00DBFA394605A8FFF767FB314605A8FFF716
:104B2C0063FB069B013B0093CDE90144059B2246A8
:104B3C0014212846FFF71CFF0DF2244DF0BD00BFD9
:104B4C00CD6B0D0007B500210F48FFF7E3FD0F48B3
:104B5C00694600F027F988B1BDF900200A48002108
:104B6C00FFF7C6FFBDF9022007480121FFF7C0FF80
:104B7C00BDF9042004480221FFF7BAFF642000F0BD
:104B8C0053FC03B05DF804FBCCE5032028E60320BE
:104B9C0037B5264D2846002401F03AFA05F11C00E1
:104BAC0000F020FD224A6C632C872249284601F034
:104BBC00A9FD214B2146C3E90054C3E90244C3E9D2
:104BCC0004449C619C831D4C1D4D012000F070FB26
:104BDC000821204600F0B8F81A4B23602978BFF35F
:104BEC005B8F11F001010BD128460191FFF75CFAA4
:104BFC00019928B1144800F0BFFE2846FFF759FA76
:104C0C00114BE3600F23114A236100232375A2612A
:104C1C002377074A0E4B0F49084823620123A384CC
:104C2C0003B0BDE8304001F06DBD00BFECE50320E2
:104C3C00BCE5032005410D00CCE5032028E603204C
:104C4C00C0E503206C6C0D00C4E50320D86B0D008F
:104C5C0080969800654C0D00704710B528210446CD
:104C6C0001F055FD204610BD10B5044600F11801A9
:104C7C00C06800F0B7FE208A0021BDE8104001F0AA
:104C8C0098BC10B504460121008A01F092FCE06842
:104C9C00BDE8104000F08DBEF8B51E4603685B6998
:104CAC000F46144605469847012E88BF47F040072B
:104CBC00E86847F0800100F003FF2644B44206D0B8
:104CCC00E868002100F0FCFE04F8010BF6E72B6805
:104CDC0028469B6998470120F8BDF8B51E46036825
:104CEC005B690F46144605469847012E88BF47F06E
:104CFC004007E868394600F0E3FE2644B44205D08C
:104D0C0014F8011BE86800F0DBFEF7E72B68284677
:104D1C009B6998470120F8BD002202704270827096
:104D2C00C270027142718271C271027242728272DD
:104D3C007047002241F007010170027182704270CD
:104D4C00C271427270470000024AC0E90021002281
:104D5C0002727047506C0D0013B5036801AADC6831
:104D6C000123A0479DF8040002B010BD38B50546DC
:104D7C000A240F212846FFF7EFFF33284FF00100DC
:104D8C0004D000F051FB013CF3D1204638BD10B5E6
:104D9C000446018AC06800F0F9FD2046BDE81040C9
:104DAC00FFF7E4BFF7B50C4627210546FFF7D4FF04
:104DBC0000F00800002814BF012600261BD02B6829
:104DCC006A46DF68282106232846B8479DF801204B
:104DDC009DF8003043EA022323809DF803209DF8C0
:104DEC00023043EA022363809DF805209DF80430CD
:104DFC0043EA0223A380304603B0F0BD13B5036829
:104E0C008DF804201C6901AA0123A04702B010BD33
:104E1C0070B503689B6804460D469847064630B942
:104E2C0001F07EFA274900F034FD304670BD2A7837
:104E3C0020212046FFF7E2FF6A7821212046FFF768
:104E4C00DDFFAA7822212046FFF7D8FFEA7823213C
:104E5C002046FFF7D3FF2A7924212046FFF7CEFF07
:104E6C006A7925212046FFF7C9FFAB791BB12621B2
:104E7C002046FFF771FFAA7A2E212046FFF7BEFFCE
:104E8C00AB785B06D1D5EA7932212046FFF7B6FF25
:104E9C002A7A33212046FFF7B1FF6368002B0ADB27
:104EAC006A7A227220463021FFF7A8FF3121204672
:104EBC00FFF752FFB9E70022227230212046FFF79C
:104ECC009DFFB2E7376C0D0000F0AEBA00F038B8B9
:104EDC00704770477047000003065ABF024B53F8E7
:104EEC0020000020704700BF886C0D0003065ABFDD
:104EFC00024B53F820000020704700BF886E0D0055
:104F0C0008B5024B1B685B6C019308BD480203009B
:104F1C0008B5024B1B689B6C019308BD480203004B
:104F2C0008B5024B1B685B68019308BD18020300AF
:104F3C0008B5024B1B68DB68019308BD180203001F
:104F4C0008B5024B1B685B69019308BD180203008E
:104F5C0008B5024B1B685B68019308BD2C0203006B
:104F6C0008B5024B1B689B68019308BD2C0203001B
:104F7C0008B5024B1B68DB68019308BD2C020300CB
:104F8C0008B5024B1B681B69019308BD2C0203007A
:104F9C0008B5024B1B685B69019308BD2C0203002A
:104FAC0008B5024B1B689B6A019308BD2C020300D9
:104FBC0008B5024B1B681B6B019308BD2C02030048
:104FCC0008B5024B1B689B6F019308BD2C020300B4
:104FDC0008B5024B1B681B6A019308BD280203002D
:104FEC0008B5024B1B685B6A019308BD28020300DD
:104FFC0008B5024B1B689B6A019308BD280203008D
:10500C0008B5024B1B68DB6A019308BD280203003C
:10501C0008B5024B1B681B6B019308BD28020300EB
:10502C0008B5024B1B685B6B019308BD280203009B
:10503C0008B5024B1B681B6C019308BD28020300CA
:10504C0008B5024B1B685B69019308BD6C02030039
:10505C0008B5024B1B685B69019308BD6402030031
:10506C0008B5024B1B681B6A019308BD6402030060
:10507C0008B5024B1B689B6A019308BD64020300D0
:10508C0008B5024B1B689B68019308BD68020300BE
:10509C0008B5024B1B68DB68019308BD680203006E
:1050AC0008B5024B1B689B69019308BD38020300CD
:1050BC0008B5024B1B68DB69019308BD380203007D
:1050CC0008B5024B1B681B6A019308BD380203002C
:1050DC0008B5024B1B689B6A019308BD380203009C
:1050EC0008B5024B1B681B6B019308BD380203000B
:1050FC0008B5024B1B689B6B019308BD380203007B
:10510C0008B5024B1B681B68019308BD30020300F5
:10511C0008B5024B1B685B69019308BD30020300A4
:10512C0008B5024B1B68DB69019308BD3002030014
:10513C0008B5024B1B681B6A019308BD30020300C3
:10514C0008B5024B1B685B6A019308BD3002030073
:10515C0008B5024B1B68DB6B019308BD30020300E2
:10516C0008B5024B1B681B6C019308BD3002030091
:10517C0008B5024B1B685B6C019308BD3002030041
:10518C0008B5024B1B681B68019308BD3C02030069
:10519C0008B5024B1B68DB68019308BD3C02030099
:1051AC0008B5024B1B681B69019308BD3C02030048
:1051BC0008B5024B1B685B69019308BD3C020300F8
:1051CC0008B5024B1B689B69019308BD3C020300A8
:1051DC0008B5024B1B68DB69019308BD3C02030058
:1051EC0008B5024B1B681B6A019308BD3C02030007
:1051FC0008B5024B1B689B6A019308BD3C02030077
:10520C0008B5024B1B681B68019308BD4C020300D8
:10521C0008B5024B1B685B68019308BD4C02030088
:10522C0008B5024B1B681B69019308BD4C020300B7
:10523C0008B5024B1B685B69019308BD4C02030067
:10524C0008B5024B1B689B69019308BD4C02030017
:10525C0008B5024B1B68DB69019308BD4C020300C7
:10526C0008B5024B1B681B6A019308BD4C02030076
:10527C0008B5024B1B685B6B019308BD6002030011
:10528C0008B5024B1B681B6D019308BD600203003F
:10529C0008B5024B1B685B68019308BD2002030034
:1052AC0008B5024B1B685B69019308BD2002030023
:1052BC0008B5024B1B68DB6A019308BD2002030092
:1052CC0008B5034B1B68D3F88830019308BD000068
:1052DC002002030008B5034B1B68D3F894300193EC
:1052EC0008BD00002002030008B5024B1B689B6838
:1052FC00019308BD4402030008B5024B1B68DB6B2D
:10530C00019308BD4402030008B5024B1B685B689F
:10531C00019308BD4002030008B5024B1B689B6853
:10532C00019308BD4002030008B5024B1B68DB6803
:10533C00019308BD4002030008B5024B1B681B69B2
:10534C00019308BD4002030008B5024B1B685B6962
:10535C00019308BD4002030008B5024B1B689B6912
:10536C00019308BD4002030008B5024B1B68DB69C2
:10537C00019308BD4002030008B5024B1B681B6A71
:10538C00019308BD4002030008B5024B1B681B6B60
:10539C00019308BD4002030008B5024B1B685B6B10
:1053AC00019308BD4002030008B5024B1B681B6C3F
:1053BC00019308BD4002030008B5024B1B685B6CEF
:1053CC00019308BD4002030008B5024B1B681B6823
:1053DC00019308BD1C02030008B5024B1B685B68F7
:1053EC00019308BD1C02030008B5024B1B68DB6966
:1053FC00019308BD1C02030008B5024B1B685B6AD5
:10540C00019308BD1C02030008B5024B1B68DB6B43
:10541C00019308BD1C02030008B5024B1B685B6CB2
:10542C00019308BD1C0203000021FFF739BF10B522
:10543C000446006808B1FFF76BFD204610BD10B59F
:10544C008368044613B1032201469847204610BDD9
:10545C0010B5064C002320462360FFF751FD204673
:10546C00034A0449BDE8104001F04CB950E6032052
:10547C00BCE503203B540D00002240681146FFF7A9
:10548C007BBF002240681146FFF786BF40680022B0
:10549C00FFF77ABF4068002281F00101FFF764BF7B
:1054AC00002340681A461946FFF756BF0023406890
:1054BC001A461946FFF748BF002240681146FFF70D
:1054CC003BBF002240681146FFF726BF4068002210
:1054DC000221FFF729BF002340681A46FFF714BFCB
:1054EC00024B03225A60024A1A60704754E60320AA
:1054FC0098700D007047F8B5064615460C468F1887
:10550C00BC4206D0336814F8011B9B6830469847A0
:10551C00F6E72846F8BD007C0022FFF759BD007C59
:10552C000021FFF75DBD007C0021FFF761BD007C11
:10553C000021FFF765BD007C0021FFF769BD10B5A8
:10554C001421044601F0E3F8204610BD10B54FF4C9
:10555C007A73044608460021C4E90113034B236007
:10556C0020741146FFF764FD204610BDD4700D0069
:10557C00704710B51821044601F0C9F8204610BD3B
:10558C00F0B5037D062B8DB00E4600F104074FF0ED
:10559C00000412D000F1080515F8011D0A2230464E
:1055AC0000F081F9AF42044419D0002CF4D02E2124
:1055BC00304600F05FF90444EEE72F236A46394683
:1055CC000A208DF80040FFF743FD684601F010FA01
:1055DC0033680246DB6869463046984704462046E5
:1055EC000DB0F0BD10B5054B0446112240F8043B3C
:1055FC00002101F0C7F9204610BD00BFFC700D0062
:10560C000346074A10B543F8042B01F1100251F878
:10561C00044B43F8044B9142F9D10A781A7010BD2F
:10562C00FC700D00037D042B04D14068003818BFBA
:10563C0001207047062B07D143683BB983682BB90F
:10564C00C3681BB90069F1E700207047012070475F
:10565C0010B59DF8084044EA032343EA024242EAAB
:10566C00016104234160037510BD000037B5044D82
:10567C0005609DF818500095FFF7EAFF03B030BDA8
:10568C00FC700D0013B5054B0360CB7800938B7841
:10569C004A780978FFF7DCFF02B010BDFC700D00F2
:1056AC00014B024A1A6070475CE6032008710D003A
:1056BC00002340681A46FFF727BE406800220221EB
:1056CC00FFF732BE002240681146FFF725BE0022CC
:1056DC0040681146FFF730BE002340681A46194651
:1056EC00FFF732BE002340681A461946FFF734BE56
:1056FC0040680021FFF758BE40680021FFF75CBEF0
:10570C004068002281F00101FFF72EBE40680022A4
:10571C00FFF73ABE002240681146FFF73DBE00225B
:10572C0040681146FFF728BE2DE9F043002495B0E0
:10573C0016460D460746FFF755FF214618220EA8C0
:10574C00009401F01FF94023CDE90C3421466B463F
:10575C000CAA3046FFF79CFC044600284CD10246AC
:10576C0001216868FFF7E8FD02218046224668683F
:10577C00FFF7E2FD009E81462146002E3CD0002919
:10578C003AD17368022B03D00A2B11D0F669F4E7D7
:10579C00B8F1000F0AD0716906A8043107ADFFF704
:1057AC0071FF0FCD3C1D0FC42B6823704146EDE7F4
:1057BC00B9F1000F01D14946E8E77469102201A83C
:1057CC0001F0E0F806238DF8143001AD04F1080364
:1057DC001834186859682A4603C20833A342154680
:1057EC00F7D101A906A807ADFFF70AFF0FCD3C1DA5
:1057FC000FC42B682370DEE70098FFF741FC384696
:10580C0015B0BDE8F0830000024B034A1A60002279
:10581C005A60704760E6032014710D00F8B5064617
:10582C000D468F180024BD420CD0336815F8011BAF
:10583C009B6830469847031E01DB1C44F3E7002CA1
:10584C0008BF1C462046F8BD13B50446084659B19E
:10585C00019101F0CDF823680199DB6802462046DE
:10586C0002B0BDE81040184702B010BD08B5FFF7F4
:10587C00EBFF08BD03689B68184738B50D2105463A
:10588C00FFF7F8FF0A2104462846FFF7F3FF2044F0
:10589C0038BD38B50546FFF7D7FF04462846FFF755
:1058AC00ECFF204438BD30B58BB000238DF824308C
:1058BC00012A98BF0A2209AC0D46B1FBF2F101FB9B
:1058CC00125303F0FF03092B94BF30333733DBB291
:1058DC00AA4204F8013DEFD92146FFF7B5FF0BB002
:1058EC0030BD2DE9F04186B000AF05460E46381D9F
:1058FC00142114463B60FFF77FFD13280ED8391D89
:10590C002846FFF7A1FF04461EB12846FFF7B5FF56
:10591C00044420461837BD46BDE8F08100F1080369
:10592C0023F00703E846ADEB030D2246411C3B6810
:10593C006846FFF761FD69462846FFF785FF044678
:10594C00C546E1E710B50446FFF779FD204610BDCA
:10595C000348044A04490023836000F0D3BE00BF0F
:10596C0068E60320BCE5032051590D000021FFF728
:10597C00F7BB0021FFF7FCBB10B5044608462170AD
:10598C00FFF7CEFB00236360204610BD13B5044621
:10599C0000780191FFF7EAFF019940B92078FFF7F1
:1059AC00AFFB207802B0BDE81040FFF7E2BF02B0B9
:1059BC0010BD0078FFF7DDBF400830B5186000243B
:1059CC0018688842E5B206D90134082C02D0400888
:1059DC001860F5E70725024B5B5D137030BD00BF07
:1059EC0048710D002DE9F04306468FB000780C4647
:1059FC00FFF7BCFF00281BDB35781422002109A817
:105A0C0000F0C0FF0B23002209A92846ADF8243072
:105A1C00FFF796FB9DF82D3013B19DF82C5055B126
:105A2C000027B946B846012523795DB1C3B10020E2
:105A3C000FB0BDE8F083DDF830809DF834909DF810
:105A4C003570F1E7002B35D1A368434508D18DF8AB
:105A5C0020908DF82170BDF82020A3899A42E6D0C1
:105A6C000023A1688DF80F300A9804AB0DF10F02DA
:105A7C00FFF7A2FF217985B989B9A36843450ED3F5
:105A8C008DF820908DF82170BDF82020A3899A42C2
:105A9C0005D1049B434502D1C9E70029F9D1002364
:105AAC000193637B00939DF80F20237B3078FFF7E5
:105ABC004FFBBCE7CDE900552B462A460121F5E703
:105ACC0008B50078FFF724FBC0B208BD10B504463A
:105ADC00FFF736FAE060236820465B699847002898
:105AEC0008DAFFF72DFAE368C01AA3689842F2D3DC
:105AFC004FF0FF3010BDF8B506460D461746002492
:105B0C00BC4207D03046FFF7E1FF031E02DB2B55EA
:105B1C000134F5E72046F8BD10B50446006818B10D
:105B2C00FFF75AFC0023236010BD10B50446FFF7A5
:105B3C00F3FF204610BD000010B5094B094C0222A2
:105B4C0000201A60084B2060A080A071A360FFF7B2
:105B5C009FFB2046054A0649BDE8104000F0D2BD27
:105B6C0084E6032078E603200000FFFFBCE5032059
:105B7C00375B0D0013B503688DF80710DC6B012241
:105B8C004FF0FF330DF10701A04702B010BD10B468
:105B9C000368DC6B4FF0FF33A4465DF8044B6047A1
:105BAC0013B5134602688DF80710D46B0DF107017D
:105BBC000122A04702B010BD704738B543691A687E
:105BCC00002A054610DAB3F88620B3F884309A42DE
:105BDC000AD103681B699847044628B92B682846E4
:105BEC00DB6A9847204638BD0120FCE743691868FA
:105BFC00C043C00F70477047064B994210B500F177
:105C0C000C0405D0084600F087FD002808BF0024CE
:105C1C00204610BD88700D0010B5AC21044600F074
:105C2C0076FD204610BDFEF732BA2DE9F0414FF05B
:105C3C00000886B01D46C0F8048004460E46174680
:105C4C004146102202A800F09DFE6B1C09D04FF4B7
:105C5C007A70B5FBF0F3CDE9023800FB13535843CF
:105C6C000490606910230093006802AB41F20502B6
:105C7C0040F6FF71FFF714FA002807DAFFF7C4FBB0
:105C8C0003686360002006B0BDE8F0816069002302
:105C9C0000683A463146FFF723FA031EEEDB18463E
:105CAC00F1E7000038B584690A4B036005467CB106
:105CBC006368013B63605BB9236820469B68984727
:105CCC00A368013BA3601BB923682046DB68984797
:105CDC00284638BD8C710D0010B50446FFF7E2FF65
:105CEC0020461C2100F013FD204610BD70B54D69F7
:105CFC00054B04468C3544F8043B06460FCD0FC4C7
:105D0C002B682370304670BDFC700D0010B54369D4
:105D1C00B3F88620B3F884309A42044605D0636900
:105D2C00B3F884201344187910BD03681B69984795
:105D3C000028F4D14FF0FF30F6E710B54369B3F803
:105D4C008620B3F884309A42044608D06369B3F8CD
:105D5C008420511CA3F884101344187910BD0368D7
:105D6C001B6998470028F1D14FF0FF30F6E7F8B5E2
:105D7C0043691746B3F88620B3F884309A42054637
:105D8C000E4616D06969B1F88430B1F88640E41A31
:105D9C00BC4228BF3C46043322461944304600F02E
:105DAC00E3FD6A69B2F884302344A2F884302046BB
:105DBC00F8BD03681B6998470028E3D14FF0FF3406
:105DCC00F5E742690023A2F884304269A2F88630D4
:105DDC0070472DE9F0411F4603680C46DB6A8AB018
:105DEC00054616469847237DD5F81480042B0CBF26
:105DFC0002200A2006220121FFF77AF9C8F80000D8
:105E0C006B691B68002B08DA2B682846DB6A0024B8
:105E1C00984720460AB0BDE8F0812846FFF7D1FF2D
:105E2C00B7B1002303A9F8B20393ADF81030FFF714
:105E3C0007F90028E8D1686906230093006803ABD2
:105E4C0041F20B0240F6FF71FFF72AF90028DBD173
:105E5C001C22002103A800F095FD237D042B1DD1ED
:105E6C004FF407733046ADF80C30FFF701F9ADF87D
:105E7C000E006068FFF7F4F804906B691C22186838
:105E8C0003A9FFF71DF90028BED104340FCC6D69AE
:105E9C008C350FC523682B700124BAE740F61C2300
:105EAC003046ADF80C30FFF7E3F805AEADF80E0058
:105EBC00231D04F1140718685968324603C20833CD
:105ECC00BB421646F7D1D8E730B54269B2F88630F6
:105EDC008BB004462BB1B2F884209A4201D1FFF763
:105EEC0070FF61690868002818DBB1F886507F2DB7
:105EFC0014D804310823C5F180022944FFF7E8F8CF
:105F0C00002813DD6369B3F886200AB9A3F884204E
:105F1C006369B3F886201044A3F886006369B3F86C
:105F2C008600B3F88430C01A0BB030BDFFF76CFAA2
:105F3C0003680B2BF2D0FFF767FA03680B2BEDD03D
:105F4C0020230025CDE90235FFF75EFA03680193A3
:105F5C00084B0949009302AA2B463220FFF790F90F
:105F6C0063691868FFF7A4F863694FF0FF321A6091
:105F7C00D4E700BF57710D0050710D0010B5436987
:105F8C0004461868002801DBFFF792F863694FF0AC
:105F9C00FF321A606069112200218C3000F0F2FC93
:105FAC002046BDE81040FFF70CBF10B50023044697
:105FBC000160C0F884308830FFF714FB204610BD18
:105FCC0073B500234FF47A72C0E901320E4A0361B3
:105FDC00026043610446AC200191FEF754F8051EA3
:105FEC0005F10C0608D00123C5E90133074B0199D3
:105FFC002B603046FFF7D9FF2046C4E90565FFF753
:10600C00E0FE02B070BD00BF8C710D0070710D0010
:10601C0010B54FF0FF310446FFF7D2FF204610BDFC
:10602C0010B504460068002801DBFFF741F8204654
:10603C0010BD0C30FFF7F4BF70B586B0064601AD4D
:10604C006846FFF71FFB0FCD341D0FC42B68237060
:10605C00304606B070BD00002DE9F0439846036849
:10606C0093B00D460024DB6A06461746984728462F
:10607C006B46224621460094FFF70AF80546002895
:10608C0063D1009B002B4BD05B69002B48D006A83A
:10609C00FFF7A8FA009B5C696378022B04D1211DE1
:1060AC0006A8FFF7C9FF26E00A2B24D111222946A6
:1060BC0001A800F067FCA368002B38D004F108039A
:1060CC000DF1040C183418685968624603C2083381
:1060DC00A3429446F7D1062301A90CA88DF81430DD
:1060EC00FFF78EFA0DF1340CBCE80F0007AC0FC4AF
:1060FC00DCF80030237006A8FFF794FA80B13368FF
:10610C0007ADD3F82090124B0C930FCD0DAC0FC4F0
:10611C002B6823703A4643460CA93046C8470546BF
:10612C000098FEF7ADFF284613B0BDE8F083E36896
:10613C00002BC3D14FF6FF70D4F81090FEF790FFF0
:10614C008145BBD104F11401AAE72546E8E700BF5D
:10615C00FC700D00024B1A68024B1A60704700BFAE
:10616C0054E5032088E6032070474174704708B556
:10617C00007CFFF73DF820EAE07008BD08B5007C14
:10618C00FFF70EF820EAE07008BD08B5007CFFF7B9
:10619C0017F840EAE07008BD08B5007CFFF708F876
:1061AC0040EAE07008BD007CFFF712B837B5457CBB
:1061BC0004462DB1207C03B0BDE83040FEF7E8BFAB
:1061CC00007C0191FFF714F800280199F2DC2846B5
:1061DC0003B030BD10B51421044600F098FA2046E7
:1061EC0010BD000010B54FF0000C044608461146D7
:1061FC004FF47A72C4E901C2044A2260012220746D
:10620C0062741A46FEF7BCFF204610BDF4710D00F7
:10621C0013B50E4C2178BFF35B8F11F0010112D135
:10622C0020460191FDF740FF019960B1084A094BE6
:10623C000948FFF7D7FF2046FDF73BFF074A0849FF
:10624C00054800F05FFA044802B010BD8CE603204C
:10625C0090E6032014E7032098E70320BCE5032015
:10626C0075610D0041747047704708B50021007CC2
:10627C00FEF7E6FF40EAE07008BD08B50121007C9E
:10628C00FEF7DEFF40EAE07008BD08B5007CFEF7C3
:10629C00CFFF20EAE07008BD08B5007CFEF7C0FF18
:1062AC0020EAE07008BD13B50446007C0191FEF7AE
:1062BC00BFFF0028019901DC607C20B1207CFEF737
:1062CC00C7FF20EAE07002B010BD007CFEF7C8BF2B
:1062DC0010B51421044600F01AFA204610BD000037
:1062EC0010B54FF47A73044608460021C4E9011333
:1062FC00044B23600123207463741146FEF780FF66
:10630C00204610BD24720D00007C0022FEF780BFD9
:10631C0010B514220446002100F034FB204610BDB9
:10632C0010B5104C88B003A8FFF7F2FF2178BFF32B
:10633C005B8F11F0010111D120460191FDF7B4FEE4
:10634C00019958B103AA0848FFF7CAFF2046FDF788
:10635C00B0FE064A0649044800F0D4F9024808B0D9
:10636C0010BD00BFACE70320B0E70320BCE5032061
:10637C0075620D00002240681146FEF7DDBF002259
:10638C0040681146FEF7F8BF002240681146FFF73F
:10639C0003B840680022FEF7F7BF4068002281F086
:1063AC000101FEF7E1BF002340681A461946FEF7CB
:1063BC00D3BF002340681A461946FEF7C5BF00221A
:1063CC0040681146FEF7A8BF406800220221FEF784
:1063DC00ABBF002340681A46FEF796BF024B04225F
:1063EC005A60024A1A607047C4E7032054720D00C9
:1063FC00014B1860704700BF58E5032008B50B4BE4
:10640C0043B1FFF78DFF03681B699847002801DD36
:10641C00AFF30080064B43B1FFF7FAFE03681B692C
:10642C009847002801DDAFF3008008BD0000000094
:10643C000000000008B5FFF7E1FFFEF781FD014BFE
:10644C00186008BDD4E703200248034A0349121A16
:10645C0000F08ABA00F4032004F40320B0740D0099
:10646C0007B5002300931A466FF07701FEF732FF51
:10647C0003B05DF804FB000007B543880A2B08D075
:10648C00502B0BD1094B1B684BB103B05DF804EBDF
:10649C001847FFF7E5FF03B05DF804FB00230093FA
:1064AC001A466FF07701FEF715FFF4E7D0E70320EB
:1064BC0038B5124C1248134D0021FEF7ADFF23687E
:1064CC00AB42114B0CBF012200221A7002D0FFF715
:1064DC00BBFF2560FEF724FD044600F05BFA0B4B76
:1064EC0013B12046AFF3008000210848FEF704FFEB
:1064FC00BDE8384006480021FEF7E2BE00F4032058
:10650C00FD630D001E1C279ACCE703200000000041
:10651C0085640D00232813B502D9002002B010BDEC
:10652C00A0F10B03022B1AD8174C2178BFF35B8F09
:10653C0011F001010BD120460191FDF7B5FD019938
:10654C0028B11248FFF718FA2046FDF7B2FD0F4BA1
:10655C001878FEF7EDFD0028DFD10120DEE70128D9
:10656C0009D800F0A7F80021007CFEF759FD80F057
:10657C000100C0B2D2E709380128EED8FFF748FE77
:10658C00007CFEF72DFEF2E7C0E50320C4E50320F6
:10659C00232838B504460D460AD8FF2908D0FFF742
:1065AC00B9FF28B129462046BDE83840FEF7D8BCD3
:1065BC0038BD38B504460D46FEF7DAFCFF2810D07E
:1065CC00062804D84D2323FA00F0C30709D420462B
:1065DC00FFF7A0FF28B129462046BDE83840FEF75A
:1065EC00CFBC38BD10B50446FEF7C2FC031FDBB2AE
:1065FC00012B08D92046FFF78DFF20B12046BDE8BE
:10660C001040FEF7C5BC002010BD0D2810B5044687
:10661C009CBF0E34A4B22046FFF77CFF50B103217F
:10662C002046FEF795FC032804D12046BDE8104017
:10663C00FEF7BEBC002010BD38B504460D46FFF772
:10664C0069FFF0B104212046FEF782FC042805D135
:10665C00A9B22046BDE83840FEF7A2BC0221204674
:10666C00FEF776FC02280CD12046FEF781FC0128AF
:10667C0001D0042805D129462046BDE83840FEF754
:10668C009FBC38BD38B50023202543801423044615
:10669C000380856005610649284600F03AF80449F4
:1066AC006060284600F035F8E060204638BD00BF39
:1066BC0088720D0030B50F4D2978BFF35B8F11F048
:1066CC00010487B013D12846FDF7EEFC78B101A880
:1066DC00FFF7D8FF01AA21460748FEF737FF2846E7
:1066EC00FDF7E7FC054A0649034800F00BF80248A1
:1066FC0007B030BDD8E70320DCE70320BCE503205E
:10670C0001550D000B460146184600F01FB9FDF768
:10671C00BEBCFDF7BABC0000014900F0F9B800BFDF
:10672C00A4720D007FB500241023CDE90234036858
:10673C0000949E698DF8044015466B461268B0476C
:10674C009DF8043003F00603062B03BF009B2B605F
:10675C000120204604B070BD0098904214BF012067
:10676C000620704710B5034B0360044600F0CDF8CB
:10677C00204610BDE4720D0010B50446FFF7F2FF81
:10678C0020460821FFF7C3FF204610BD2DE9F0413C
:10679C001F46DDE90834DDF8188098450646154695
:1067AC0007D1079900F0B4F818B165710020BDE865
:1067BC00F0813946304600F0ABF80028F6D00123C2
:1067CC00C4F800802571A371F0E738B515461C4656
:1067DC0000F09EF820B10823E360062325602371A6
:1067EC0038BD73B505460C4601921E4600F090F874
:1067FC0050B9032E08D82368019A5B6929462046B4
:10680C0002B0BDE87040184702B070BD10B5034B24
:10681C0003600446FFF7A6FF204610BD44730D002D
:10682C0010B50446FFF7F2FF20460C21FFF76FFF6F
:10683C00204610BDF7B5089F974205460E461446F4
:10684C000AD0A86802680897156A31462246AC46F9
:10685C0003B0BDE8F04060471946019300F058F8CA
:10686C00019B0028EDD0062003B0F0BD2DE9F14FBF
:10687C000D461946DDE90A4BDDE90CA681461746A3
:10688C00984600F045F890B1002D3460377109DB63
:10689C0061198A450CBF06210121B171002001B09C
:1068AC00BDE8F08F0235F9D10123B371F6E75445F9
:1068BC0006D15946484600F02BF808B17771EDE740
:1068CC00D9F808000368CDE90CA6CDE90A4BDC69C0
:1068DC003A4643462946A44601B0BDE8F04F60470E
:1068EC002DE9F04107460C4615461E46FFF76DFF95
:1068FC0048B9B86803689F692A4633462146BC46A6
:10690C00BDE8F0416047BDE8F0817047002070475A
:10691C00814208B50ED0406803782A2B0CD0496808
:10692C000B782A2B08BF013100F058F8B0FA80F030
:10693C00400908BD0120FCE70020FAE70A220021EB
:10694C0000F0ECB80A22002100F0E8B810B5054CB4
:10695C0013462CB10A4601460220AFF3008010BD4D
:10696C002046FCE7000000000A44914200F1FF338E
:10697C0000D1704710B511F8014B03F8014F91424B
:10698C00F9D110BD02440346934200D1704703F87D
:10699C00011BF9E738B50D4B1D68AB6B04467BB991
:1069AC001820FEF711FD0A4A0A4BA863C0E9002320
:1069BC00094B83600B23838101220023C0E904234C
:1069CC00AB6B00221C615A6138BD00BF58E5032037
:1069DC000E33CDAB34126DE6ECDE050010F8012B56
:1069EC0011F8013B012A28BF9A42F7D0D01A704700
:1069FC00034613F8012B002AFBD1181A01387047F3
:106A0C0010B50139034632B111F8014F03F8014BAF
:106A1C00013A002CF7D11A440021934200D110BD49
:106A2C0003F8011BF9E700002DE9F0473A4E8646C2
:106A3C008C4660461CF8014BA55D15F00805F8D195
:106A4C002D2C33D19CF800404FF0010800F1020CC2
:106A5C00002B5CD0102B0CD1302C0AD19CF80000F0
:106A6C0000F0DF0058284DD19CF8014010230CF1A8
:106A7C00020C08F10047013F0026B7FBF3F9304642
:106A8C0003FB197AA4F13005092D18D82C46A34222
:106A9C0024DD751C07D081451DD301D1A2451ADB1D
:106AAC0000FB034001261CF8014BEBE72B2C08BF25
:106ABC009CF80040A84608BF00F1020CC8E7A4F1FE
:106ACC004105192D01D8373CE1E7A4F16105192DD9
:106ADC0004D8573CDBE74FF0FF36E4E7731C06D1D4
:106AEC002223CEF80030384642B9BDE8F087B8F121
:106AFC00000F00D04042002AF7D00EB10CF1FF314C
:106B0C001160F2E73024002BB3D10823B1E7302C0D
:106B1C00A4D00A23ADE700BF7E730D0013460A46CE
:106B2C00014602480068FFF77FBF00BF58E503200D
:106B3C001D400D0059400D0081400D0085400D0099
:106B4C000000000064656661756C7420004D534252
:106B5C00004C5342003C53504953657474696E6742
:106B6C00732064656661756C743E003C53504953E8
:106B7C00657474696E6773202573257520257320E1
:106B8C004D4F444525753E00256900256C6900690B
:106B9C006E006F75740070776D006477006177001C
:106BAC00344F792D704D687444477270755F7A69F3
:106BBC00316F6365674261697936747938796561DB
:106BCC0000767700000000000000000055410D0029
:106BDC00C5400D00C7400D00626C6E6B696E66009F
:106BEC0076657200312E302E3000682D626561742E
:106BFC0000343500627566662D696E0031303234B2
:106C0C0000646576005061727469636C650062752E
:106C1C00696C64004A756C20203820323032312087
:106C2C0031303A31343A32340000006465766963AD
:106C3C0065206E6F7420666F756E64000000000036
:106C4C00000000000000000000000000794D0D0065
:106C5C00A1400D00A1400D0000000000000000004C
:106C6C00654C0D00674C0D009B4D0D00A54C0D00A7
:106C7C00E74C0D00754C0D008F4C0D00DD4E0D00DA
:106C8C00DD4E0D00DD4E0D00DD4E0D00DD4E0D0018
:106C9C00DD4E0D00DD4E0D00DD4E0D00DD4E0D0008
:106CAC00DD4E0D00DD4E0D00DD4E0D00DD4E0D00F8
:106CBC00DD4E0D00DD4E0D00DD4E0D00DD4E0D00E8
:106CCC00DD4E0D00DD4E0D00DD4E0D00DD4E0D00D8
:106CDC00DD4E0D00DD4E0D00DD4E0D00DD4E0D00C8
:106CEC00DD4E0D00DD4E0D00DD4E0D00DD4E0D00B8
:106CFC00DD4E0D00DD4E0D00DD4E0D00DD4E0D00A8
:106D0C00DD4E0D00DD4E0D00DD4E0D00DD4E0D0097
:106D1C00DD4E0D00DD4E0D00DD4E0D00DD4E0D0087
:106D2C00DD4E0D00DD4E0D00DD4E0D00DD4E0D0077
:106D3C00DD4E0D00DD4E0D00DD4E0D00DD4E0D0067
:106D4C00DD4E0D00DD4E0D00DD4E0D00DD4E0D0057
:106D5C00DD4E0D00DD4E0D00DD4E0D00DD4E0D0047
:106D6C00DD4E0D00DD4E0D00DD4E0D00DD4E0D0037
:106D7C00DD4E0D00DD4E0D00DD4E0D00DD4E0D0027
:106D8C00DD4E0D00DD4E0D00DD4E0D00DD4E0D0017
:106D9C00DD4E0D00DD4E0D00DD4E0D00DD4E0D0007
:106DAC00DD4E0D00DD4E0D00DD4E0D00DD4E0D00F7
:106DBC00DD4E0D00DD4E0D00DD4E0D00DD4E0D00E7
:106DCC00DD4E0D00DD4E0D00DD4E0D00DD4E0D00D7
:106DDC00DD4E0D00DD4E0D00DD4E0D00DD4E0D00C7
:106DEC00DD4E0D00DD4E0D00DD4E0D00DD4E0D00B7
:106DFC00DD4E0D00DD4E0D00DD4E0D00DD4E0D00A7
:106E0C00DD4E0D00DD4E0D00DD4E0D00DD4E0D0096
:106E1C00DD4E0D00DD4E0D00DD4E0D00DD4E0D0086
:106E2C00DD4E0D00DD4E0D00DD4E0D00DD4E0D0076
:106E3C00DD4E0D00DD4E0D00DD4E0D00DD4E0D0066
:106E4C00DD4E0D00DD4E0D00DD4E0D00DD4E0D0056
:106E5C00DD4E0D00DD4E0D00DD4E0D00DD4E0D0046
:106E6C00DD4E0D00DD4E0D00DD4E0D00DD4E0D0036
:106E7C00DD4E0D00DD4E0D00DD4E0D00DF4E0D0024
:106E8C00DF4E0D00DF4E0D00DF4E0D00DF4E0D000E
:106E9C00DF4E0D00DF4E0D00DF4E0D00DF4E0D00FE
:106EAC00DF4E0D00DF4E0D00DF4E0D00DF4E0D00EE
:106EBC00DF4E0D00DF4E0D00DF4E0D00DF4E0D00DE
:106ECC00DF4E0D00DF4E0D00DF4E0D00DF4E0D00CE
:106EDC00DF4E0D00DF4E0D00DF4E0D00DF4E0D00BE
:106EEC00DF4E0D00DF4E0D00DF4E0D00DF4E0D00AE
:106EFC00DF4E0D00DF4E0D00DF4E0D00DF4E0D009E
:106F0C00DF4E0D00DF4E0D00DF4E0D00DF4E0D008D
:106F1C00DF4E0D00DF4E0D00DF4E0D00DF4E0D007D
:106F2C00DF4E0D00DF4E0D00DF4E0D00DF4E0D006D
:106F3C00DF4E0D00DF4E0D00DF4E0D00DF4E0D005D
:106F4C00DF4E0D00DF4E0D00DF4E0D00DF4E0D004D
:106F5C00DF4E0D00DF4E0D00DF4E0D00DF4E0D003D
:106F6C00DF4E0D00DF4E0D00DF4E0D00DF4E0D002D
:106F7C00DF4E0D00DF4E0D00DF4E0D00DF4E0D001D
:106F8C00DF4E0D00DF4E0D00DF4E0D00DF4E0D000D
:106F9C00DF4E0D00DF4E0D00DF4E0D00DF4E0D00FD
:106FAC00DF4E0D00DF4E0D00DF4E0D00DF4E0D00ED
:106FBC00DF4E0D00DF4E0D00DF4E0D00DF4E0D00DD
:106FCC00DF4E0D00DF4E0D00DF4E0D00DF4E0D00CD
:106FDC00DF4E0D00DF4E0D00DF4E0D00DF4E0D00BD
:106FEC00DF4E0D00DF4E0D00DF4E0D00DF4E0D00AD
:106FFC00DF4E0D00DF4E0D00DF4E0D00DF4E0D009D
:10700C00DF4E0D00DF4E0D00DF4E0D00DF4E0D008C
:10701C00DF4E0D00DF4E0D00DF4E0D00DF4E0D007C
:10702C00DF4E0D00DF4E0D00DF4E0D00DF4E0D006C
:10703C00DF4E0D00DF4E0D00DF4E0D00DF4E0D005C
:10704C00DF4E0D00DF4E0D00DF4E0D00DF4E0D004C
:10705C00DF4E0D00DF4E0D00DF4E0D00DF4E0D003C
:10706C00DF4E0D00DF4E0D00DF4E0D00DF4E0D002C
:10707C00DF4E0D00DF4E0D00DF4E0D000000000056
:10708C00000000000000000000000000E3540D00B0
:10709C00D9540D00CF540D00C5540D00B9540D003A
:1070AC00AD540D00FD560D0005570D00A1540D00FB
:1070BC0099540D008F540D0085540D0035570D005B
:1070CC00000000000000000001550D004B550D00A4
:1070DC0023550D0003550D002B550D0033550D0098
:1070EC003B550D0043550D00000000000000000052
:1070FC008D550D007D550D007F550D006170700094
:10710C000000000000000000BD560D00C7560D0029
:10711C00D1560D00DB560D00E5560D00F1560D0055
:10712C00FD560D0005570D000D570D0019570D009C
:10713C0021570D002B570D0035570D000008101866
:10714C0020283038776972696E6700726563762023
:10715C006572726F72203D202564000000000000F3
:10716C0000000000035C0D00255C0D003F600D006D
:10717C00335C0D00055C0D000000000000000000F9
:10718C00B15C0D00E55C0D00815B0D009B5B0D009F
:10719C00D55E0D00475D0D00195D0D00C55B0D0042
:1071AC00DF5D0D0065600D007B5D0D00895F0D00DE
:1071BC00C75B0D00F95B0D00AD5B0D00375C0D007E
:1071CC00F95C0D0025592D256D2D25645425483A63
:1071DC00254D3A2553257A0061736374696D6500FA
:1071EC00000000000000000075610D00E1610D0061
:1071FC00B9610D0029580D0089610D00A5610D00C4
:10720C0097610D00B3610D0077610D007B610D007E
:10721C00000000000000000075620D00DD620D0032
:10722C00B3620D0029580D00A5620D0077620D00A8
:10723C0087620D00D7620D0097620D0071620D0020
:10724C000000000000000000DF630D00D5630D009E
:10725C00CB630D0081630D00BF630D00B3630D00A4
:10726C00FD560D0005570D00A7630D009F630D0023
:10727C0095630D008B630D0035570D000053743171
:10728C00395F53705F6D616B655F736861726564C4
:10729C005F74616700000000E4720D0089720D00DC
:1072AC0044730D00B8720D0068730D004E31305FE1
:1072BC005F637878616269763131375F5F636C61E7
:1072CC0073735F747970655F696E666F450000005B
:1072DC0000000000AC720D0071670D0085670D0099
:1072EC0019690D0019690D00EF670D0031670D006C
:1072FC00D7670D0099670D0065670D0044730D008D
:10730C0014730D00AC720D004E31305F5F637878F2
:10731C00616269763132305F5F73695F636C617390
:10732C00735F747970655F696E666F45000000006D
:10733C000000000008730D0019680D002D680D0089
:10734C0019690D0019690D00EF670D0031670D000B
:10735C00ED680D0079680D0041680D00E4720D00B8
:10736C0070730D00537439747970655F696E666F54
:10737C000000202020202020202020282828282819
:10738C0020202020202020202020202020202020F1
:10739C002020881010101010101010101010101049
:1073AC001010040404040404040404041010101049
:1073BC001010104141414141410101010101010104
:1073CC000101010101010101010101010110101074
:1073DC0010101042424242424202020202020202D7
:1073EC000202020202020202020202020210101047
:1073FC001020000000000000000000000000000051
:10740C000000000000000000000000000000000070
:10741C000000000000000000000000000000000060
:10742C000000000000000000000000000000000050
:10743C000000000000000000000000000000000040
:10744C000000000000000000000000000000000030
:10745C000000000000000000000000000000000020
:10746C000000000000000000000000000000000010
:10747C00000000009D4B0D005D540D00ED540D00FF
:10748C00AD560D0015580D005D590D00455B0D00F6
:10749C0061610D00E9630D000000000000000000B8
:0474AC0000000000DC
:0474B00000000000D8
:1074B400E4710D005CE50320000000000000000002
:1074C40000000000000000000000000000000000B8
:1074D40000000000000000000000000000000000A8
:1074E4000000000000000000000000000000000098
:1074F4000000000000000000000000000000000088
:107504000000000000000000000000000000000077
:0875140000000000000000006F
:10751C00FFFFFFFF00000102030405060708090A2C
:10752C000B0C0D0E0F101112131415161718191A27
:08753C001B1C1D1E1F2028006E
:04754400785634122F
:04000003D000401CCD
:00000001FF
